00COTAHIST.2024BOVESPA 20240315                                                                                                                                                                                                                      
012024010202PETR4       010PETROBRAS   ON        000REAI000000000105000000000010500000000001050000000000105000000000010500000000001050000000000105000150000000000000010000000000000000105000000000000000000000000000000010000000000000BRPETRACNOR9001
012024010202PETR4       010PETROBRAS   ON        000REAI000000000105000000000010500000000001050000000000105000000000010500000000001050000000000105000150000000000000010000000000000000105000000000000000000000000000000010000000000000BRPETRACNOR9001
99COTAHIST.2024BOVESPA 2024031500000000002                                                                                                                                                                                                           
